{
  "_format": "hh-sol-artifact-1",
  "contractName": "Wallet",
  "sourceName": "contracts/Wallet.sol",
  "abi": [
    {
      "inputs": [
        {
          "internalType": "address[]",
          "name": "_owners",
          "type": "address[]"
        },
        {
          "internalType": "uint256",
          "name": "_threshold",
          "type": "uint256"
        }
      ],
      "stateMutability": "nonpayable",
      "type": "constructor"
    },
    {
      "anonymous": false,
      "inputs": [
        {
          "indexed": false,
          "internalType": "address",
          "name": "_sender",
          "type": "address"
        },
        {
          "indexed": false,
          "internalType": "uint256",
          "name": "_value",
          "type": "uint256"
        }
      ],
      "name": "NewDeposit",
      "type": "event"
    },
    {
      "anonymous": false,
      "inputs": [
        {
          "indexed": false,
          "internalType": "uint256",
          "name": "oldThreshold",
          "type": "uint256"
        },
        {
          "indexed": false,
          "internalType": "uint256",
          "name": "newthreshold",
          "type": "uint256"
        },
        {
          "indexed": false,
          "internalType": "address",
          "name": "sender",
          "type": "address"
        }
      ],
      "name": "NewThreshold",
      "type": "event"
    },
    {
      "anonymous": false,
      "inputs": [
        {
          "indexed": false,
          "internalType": "address",
          "name": "to",
          "type": "address"
        },
        {
          "indexed": false,
          "internalType": "uint256",
          "name": "value",
          "type": "uint256"
        },
        {
          "indexed": false,
          "internalType": "address",
          "name": "sender",
          "type": "address"
        }
      ],
      "name": "NewTransaction",
      "type": "event"
    },
    {
      "anonymous": false,
      "inputs": [
        {
          "indexed": false,
          "internalType": "address",
          "name": "newOwner",
          "type": "address"
        },
        {
          "indexed": false,
          "internalType": "address",
          "name": "sender",
          "type": "address"
        }
      ],
      "name": "OwnerAdded",
      "type": "event"
    },
    {
      "anonymous": false,
      "inputs": [
        {
          "indexed": false,
          "internalType": "address",
          "name": "removed",
          "type": "address"
        },
        {
          "indexed": false,
          "internalType": "address",
          "name": "sender",
          "type": "address"
        }
      ],
      "name": "OwnerRemoved",
      "type": "event"
    },
    {
      "inputs": [
        {
          "internalType": "uint256",
          "name": "_index",
          "type": "uint256"
        }
      ],
      "name": "addOwnerApproval",
      "outputs": [],
      "stateMutability": "nonpayable",
      "type": "function"
    },
    {
      "inputs": [
        {
          "internalType": "address",
          "name": "_newOwner",
          "type": "address"
        }
      ],
      "name": "addOwnerRequest",
      "outputs": [],
      "stateMutability": "nonpayable",
      "type": "function"
    },
    {
      "inputs": [],
      "name": "getOwnersAddress",
      "outputs": [
        {
          "internalType": "address[]",
          "name": "",
          "type": "address[]"
        }
      ],
      "stateMutability": "view",
      "type": "function"
    },
    {
      "inputs": [
        {
          "internalType": "uint256",
          "name": "",
          "type": "uint256"
        }
      ],
      "name": "owners",
      "outputs": [
        {
          "internalType": "address",
          "name": "",
          "type": "address"
        }
      ],
      "stateMutability": "view",
      "type": "function"
    },
    {
      "inputs": [],
      "name": "pendingAddOwnerData",
      "outputs": [
        {
          "components": [
            {
              "internalType": "address",
              "name": "add",
              "type": "address"
            },
            {
              "internalType": "uint256",
              "name": "index",
              "type": "uint256"
            },
            {
              "internalType": "uint256",
              "name": "signatures",
              "type": "uint256"
            },
            {
              "internalType": "bool",
              "name": "approved",
              "type": "bool"
            }
          ],
          "internalType": "struct Wallet.AddOwner[]",
          "name": "",
          "type": "tuple[]"
        }
      ],
      "stateMutability": "view",
      "type": "function"
    },
    {
      "inputs": [],
      "name": "pendingRemoveOwnerData",
      "outputs": [
        {
          "components": [
            {
              "internalType": "address",
              "name": "remove",
              "type": "address"
            },
            {
              "internalType": "uint256",
              "name": "index",
              "type": "uint256"
            },
            {
              "internalType": "uint256",
              "name": "signatures",
              "type": "uint256"
            },
            {
              "internalType": "bool",
              "name": "approved",
              "type": "bool"
            }
          ],
          "internalType": "struct Wallet.RemoveOwner[]",
          "name": "",
          "type": "tuple[]"
        }
      ],
      "stateMutability": "view",
      "type": "function"
    },
    {
      "inputs": [],
      "name": "pendingTransactionsData",
      "outputs": [
        {
          "components": [
            {
              "internalType": "address",
              "name": "to",
              "type": "address"
            },
            {
              "internalType": "uint256",
              "name": "value",
              "type": "uint256"
            },
            {
              "internalType": "uint256",
              "name": "index",
              "type": "uint256"
            },
            {
              "internalType": "uint256",
              "name": "signatures",
              "type": "uint256"
            },
            {
              "internalType": "bool",
              "name": "approved",
              "type": "bool"
            }
          ],
          "internalType": "struct Wallet.Transaction[]",
          "name": "",
          "type": "tuple[]"
        }
      ],
      "stateMutability": "view",
      "type": "function"
    },
    {
      "inputs": [],
      "name": "pendingUpdatethresholdData",
      "outputs": [
        {
          "components": [
            {
              "internalType": "uint256",
              "name": "threshold",
              "type": "uint256"
            },
            {
              "internalType": "uint256",
              "name": "index",
              "type": "uint256"
            },
            {
              "internalType": "uint256",
              "name": "signatures",
              "type": "uint256"
            },
            {
              "internalType": "bool",
              "name": "approved",
              "type": "bool"
            }
          ],
          "internalType": "struct Wallet.UpdateThreshold[]",
          "name": "",
          "type": "tuple[]"
        }
      ],
      "stateMutability": "view",
      "type": "function"
    },
    {
      "inputs": [
        {
          "internalType": "uint256",
          "name": "_index",
          "type": "uint256"
        }
      ],
      "name": "removeOwnerApproval",
      "outputs": [],
      "stateMutability": "nonpayable",
      "type": "function"
    },
    {
      "inputs": [
        {
          "internalType": "address",
          "name": "_remove",
          "type": "address"
        }
      ],
      "name": "removeOwnerRequest",
      "outputs": [],
      "stateMutability": "nonpayable",
      "type": "function"
    },
    {
      "inputs": [],
      "name": "threshold",
      "outputs": [
        {
          "internalType": "uint256",
          "name": "",
          "type": "uint256"
        }
      ],
      "stateMutability": "view",
      "type": "function"
    },
    {
      "inputs": [],
      "name": "totalOwners",
      "outputs": [
        {
          "internalType": "uint256",
          "name": "",
          "type": "uint256"
        }
      ],
      "stateMutability": "view",
      "type": "function"
    },
    {
      "inputs": [
        {
          "internalType": "uint256",
          "name": "_index",
          "type": "uint256"
        }
      ],
      "name": "transactionApproval",
      "outputs": [],
      "stateMutability": "nonpayable",
      "type": "function"
    },
    {
      "inputs": [
        {
          "internalType": "address",
          "name": "_to",
          "type": "address"
        },
        {
          "internalType": "uint256",
          "name": "_value",
          "type": "uint256"
        }
      ],
      "name": "transactionRequest",
      "outputs": [],
      "stateMutability": "nonpayable",
      "type": "function"
    },
    {
      "inputs": [
        {
          "internalType": "uint256",
          "name": "_index",
          "type": "uint256"
        }
      ],
      "name": "updatethresholdApproval",
      "outputs": [],
      "stateMutability": "nonpayable",
      "type": "function"
    },
    {
      "inputs": [
        {
          "internalType": "uint256",
          "name": "_newThreshold",
          "type": "uint256"
        }
      ],
      "name": "updatethresholdRequest",
      "outputs": [],
      "stateMutability": "nonpayable",
      "type": "function"
    },
    {
      "stateMutability": "payable",
      "type": "receive"
    }
  ],
  "bytecode": "0x60806040523480156200001157600080fd5b50604051620044da380380620044da8339818101604052810190620000379190620004a6565b60008054906101000a900460ff161562000088576040517f08c379a00000000000000000000000000000000000000000000000000000000081526004016200007f90620007e6565b60405180910390fd5b6000825111620000cf576040517f08c379a0000000000000000000000000000000000000000000000000000000008152600401620000c6906200075e565b60405180910390fd5b815181111562000116576040517f08c379a00000000000000000000000000000000000000000000000000000000081526004016200010d90620007a2565b60405180910390fd5b600081116200015c576040517f08c379a000000000000000000000000000000000000000000000000000000000815260040162000153906200071a565b60405180910390fd5b60005b8251811015620003c15760008382815181106200017857fe5b60200260200101519050600760008273ffffffffffffffffffffffffffffffffffffffff1673ffffffffffffffffffffffffffffffffffffffff16815260200190815260200160002060009054906101000a900460ff161562000212576040517f08c379a00000000000000000000000000000000000000000000000000000000081526004016200020990620007c4565b60405180910390fd5b3073ffffffffffffffffffffffffffffffffffffffff168173ffffffffffffffffffffffffffffffffffffffff16141562000284576040517f08c379a00000000000000000000000000000000000000000000000000000000081526004016200027b9062000780565b60405180910390fd5b600073ffffffffffffffffffffffffffffffffffffffff168173ffffffffffffffffffffffffffffffffffffffff161415620002f7576040517f08c379a0000000000000000000000000000000000000000000000000000000008152600401620002ee906200073c565b60405180910390fd5b6006819080600181540180825580915050600190039060005260206000200160009091909190916101000a81548173ffffffffffffffffffffffffffffffffffffffff021916908373ffffffffffffffffffffffffffffffffffffffff1602179055506001600760008373ffffffffffffffffffffffffffffffffffffffff1673ffffffffffffffffffffffffffffffffffffffff16815260200190815260200160002060006101000a81548160ff0219169083151502179055505080806001019150506200015f565b508060018190555060016000806101000a81548160ff0219169083151502179055505050620008f0565b600081519050620003fc81620008bc565b92915050565b600082601f8301126200041457600080fd5b81516200042b62000425826200083c565b62000808565b915081818352602084019350602081019050838560208402820111156200045157600080fd5b60005b838110156200048557816200046a8882620003eb565b84526020840193506020830192505060018101905062000454565b5050505092915050565b600081519050620004a081620008d6565b92915050565b60008060408385031215620004ba57600080fd5b600083015167ffffffffffffffff811115620004d557600080fd5b620004e38582860162000402565b9250506020620004f6858286016200048f565b9150509250929050565b60006200050f6021836200086b565b91507f7468726573686f6c64206e6565647320746f206265206d6f7265207468616e2060008301527f30000000000000000000000000000000000000000000000000000000000000006020830152604082019050919050565b6000620005776018836200086b565b91507f4164647265737320302063616e2774206265206f776e657200000000000000006000830152602082019050919050565b6000620005b96024836200086b565b91507f5468657265206e6565647320746f206265206d6f7265207468616e2030206f7760008301527f6e657273000000000000000000000000000000000000000000000000000000006020830152604082019050919050565b600062000621601b836200086b565b91507f5468697320616464726573732063616e2774206265206f776e657200000000006000830152602082019050919050565b6000620006636018836200086b565b91507f7468726573686f6c642065786365656473206f776e65727300000000000000006000830152602082019050919050565b6000620006a56018836200086b565b91507f4164647265737320616c726561647920616e206f776e657200000000000000006000830152602082019050919050565b6000620006e7600d836200086b565b91507f77616c6c657420696e20757365000000000000000000000000000000000000006000830152602082019050919050565b60006020820190508181036000830152620007358162000500565b9050919050565b60006020820190508181036000830152620007578162000568565b9050919050565b600060208201905081810360008301526200077981620005aa565b9050919050565b600060208201905081810360008301526200079b8162000612565b9050919050565b60006020820190508181036000830152620007bd8162000654565b9050919050565b60006020820190508181036000830152620007df8162000696565b9050919050565b600060208201905081810360008301526200080181620006d8565b9050919050565b6000604051905081810181811067ffffffffffffffff82111715620008325762000831620008ba565b5b8060405250919050565b600067ffffffffffffffff8211156200085a5762000859620008ba565b5b602082029050602081019050919050565b600082825260208201905092915050565b6000620008898262000890565b9050919050565b600073ffffffffffffffffffffffffffffffffffffffff82169050919050565b6000819050919050565bfe5b620008c7816200087c565b8114620008d357600080fd5b50565b620008e181620008b0565b8114620008ed57600080fd5b50565b613bda80620009006000396000f3fe6080604052600436106100f75760003560e01c80635975d29d1161008a578063b017747c11610059578063b017747c14610346578063d8d1d3691461036f578063d9deecab14610398578063f103bce7146103c357610137565b80635975d29d146102a05780635e97891d146102c95780636c1da8ce146102f257806383edd9991461031b57610137565b8063243669ad116100c6578063243669ad146101f85780633a253cee1461022357806342cde4e81461024c57806350791c641461027757610137565b8063025e7c271461013c57806311a0f25b1461017957806318c7e102146101a45780631e90807d146101cf57610137565b36610137577f2cb77763bc1e8490c1a904905c4d74b4269919aca114464f4bb4d911e60de364333460405161012d92919061361a565b60405180910390a1005b600080fd5b34801561014857600080fd5b50610163600480360381019061015e9190612cc0565b6103ee565b60405161017091906135ff565b60405180910390f35b34801561018557600080fd5b5061018e61042a565b60405161019b91906136c5565b60405180910390f35b3480156101b057600080fd5b506101b9610612565b6040516101c6919061372b565b60405180910390f35b3480156101db57600080fd5b506101f660048036038101906101f19190612cc0565b6107ae565b005b34801561020457600080fd5b5061020d61096d565b60405161021a919061396d565b60405180910390f35b34801561022f57600080fd5b5061024a60048036038101906102459190612c5b565b610a07565b005b34801561025857600080fd5b50610261610cb4565b60405161026e919061396d565b60405180910390f35b34801561028357600080fd5b5061029e60048036038101906102999190612c5b565b610cba565b005b3480156102ac57600080fd5b506102c760048036038101906102c29190612cc0565b610f74565b005b3480156102d557600080fd5b506102f060048036038101906102eb9190612cc0565b6112de565b005b3480156102fe57600080fd5b5061031960048036038101906103149190612cc0565b6116c4565b005b34801561032757600080fd5b50610330611acf565b60405161033d91906136e7565b60405180910390f35b34801561035257600080fd5b5061036d60048036038101906103689190612cc0565b611cb7565b005b34801561037b57600080fd5b5061039660048036038101906103919190612c84565b611fb0565b005b3480156103a457600080fd5b506103ad61223c565b6040516103ba91906136a3565b60405180910390f35b3480156103cf57600080fd5b506103d8612482565b6040516103e59190613709565b60405180910390f35b600681815481106103fb57fe5b906000526020600020016000915054906101000a900473ffffffffffffffffffffffffffffffffffffffff1681565b6060600760003373ffffffffffffffffffffffffffffffffffffffff1673ffffffffffffffffffffffffffffffffffffffff16815260200190815260200160002060009054906101000a900460ff166104b8576040517f08c379a00000000000000000000000000000000000000000000000000000000081526004016104af906138ad565b60405180910390fd5b60606104c2612674565b90506060815167ffffffffffffffff811180156104de57600080fd5b5060405190808252806020026020018201604052801561051857816020015b610505612b40565b8152602001906001900390816104fd5790505b50905060005b825181101561060957600f83828151811061053557fe5b60200260200101518154811061054757fe5b90600052602060002090600402016040518060800160405290816000820160009054906101000a900473ffffffffffffffffffffffffffffffffffffffff1673ffffffffffffffffffffffffffffffffffffffff1673ffffffffffffffffffffffffffffffffffffffff16815260200160018201548152602001600282015481526020016003820160009054906101000a900460ff1615151515815250508282815181106105f157fe5b6020026020010181905250808060010191505061051e565b50809250505090565b6060600760003373ffffffffffffffffffffffffffffffffffffffff1673ffffffffffffffffffffffffffffffffffffffff16815260200190815260200160002060009054906101000a900460ff166106a0576040517f08c379a0000000000000000000000000000000000000000000000000000000008152600401610697906138ad565b60405180910390fd5b60606106aa6127a7565b90506060815167ffffffffffffffff811180156106c657600080fd5b5060405190808252806020026020018201604052801561070057816020015b6106ed612b80565b8152602001906001900390816106e55790505b50905060005b82518110156107a557600d83828151811061071d57fe5b60200260200101518154811061072f57fe5b90600052602060002090600402016040518060800160405290816000820154815260200160018201548152602001600282015481526020016003820160009054906101000a900460ff16151515158152505082828151811061078d57fe5b60200260200101819052508080600101915050610706565b50809250505090565b600760003373ffffffffffffffffffffffffffffffffffffffff1673ffffffffffffffffffffffffffffffffffffffff16815260200190815260200160002060009054906101000a900460ff1661083a576040517f08c379a0000000000000000000000000000000000000000000000000000000008152600401610831906138ad565b60405180910390fd5b61084261096d565b811115610884576040517f08c379a000000000000000000000000000000000000000000000000000000000815260040161087b9061382d565b60405180910390fd5b600081116108c7576040517f08c379a00000000000000000000000000000000000000000000000000000000081526004016108be906137cd565b60405180910390fd5b600d604051806080016040528083815260200160035481526020016000815260200160001515815250908060018154018082558091505060019003906000526020600020906004020160009091909190915060008201518160000155602082015181600101556040820151816002015560608201518160030160006101000a81548160ff0219169083151502179055505050600160036000828254019250508190555050565b60008060005b6006805490508110156109ff57600073ffffffffffffffffffffffffffffffffffffffff16600682815481106109a557fe5b9060005260206000200160009054906101000a900473ffffffffffffffffffffffffffffffffffffffff1673ffffffffffffffffffffffffffffffffffffffff16146109f2576001820191505b8080600101915050610973565b508091505090565b600760003373ffffffffffffffffffffffffffffffffffffffff1673ffffffffffffffffffffffffffffffffffffffff16815260200190815260200160002060009054906101000a900460ff16610a93576040517f08c379a0000000000000000000000000000000000000000000000000000000008152600401610a8a906138ad565b60405180910390fd5b600760008273ffffffffffffffffffffffffffffffffffffffff1673ffffffffffffffffffffffffffffffffffffffff16815260200190815260200160002060009054906101000a900460ff16610b1f576040517f08c379a0000000000000000000000000000000000000000000000000000000008152600401610b16906137ed565b60405180910390fd5b60006001610b2b61096d565b0311610b6c576040517f08c379a0000000000000000000000000000000000000000000000000000000008152600401610b639061388d565b60405180910390fd5b6001546001610b7961096d565b031015610bbb576040517f08c379a0000000000000000000000000000000000000000000000000000000008152600401610bb29061378d565b60405180910390fd5b600e60405180608001604052808373ffffffffffffffffffffffffffffffffffffffff16815260200160045481526020016000815260200160001515815250908060018154018082558091505060019003906000526020600020906004020160009091909190915060008201518160000160006101000a81548173ffffffffffffffffffffffffffffffffffffffff021916908373ffffffffffffffffffffffffffffffffffffffff160217905550602082015181600101556040820151816002015560608201518160030160006101000a81548160ff0219169083151502179055505050600160046000828254019250508190555050565b60015481565b600760003373ffffffffffffffffffffffffffffffffffffffff1673ffffffffffffffffffffffffffffffffffffffff16815260200190815260200160002060009054906101000a900460ff16610d46576040517f08c379a0000000000000000000000000000000000000000000000000000000008152600401610d3d906138ad565b60405180910390fd5b600760008273ffffffffffffffffffffffffffffffffffffffff1673ffffffffffffffffffffffffffffffffffffffff16815260200190815260200160002060009054906101000a900460ff1615610dd3576040517f08c379a0000000000000000000000000000000000000000000000000000000008152600401610dca9061390d565b60405180910390fd5b3073ffffffffffffffffffffffffffffffffffffffff168173ffffffffffffffffffffffffffffffffffffffff1614158015610e3c5750600073ffffffffffffffffffffffffffffffffffffffff168173ffffffffffffffffffffffffffffffffffffffff1614155b610e7b576040517f08c379a0000000000000000000000000000000000000000000000000000000008152600401610e729061384d565b60405180910390fd5b600f60405180608001604052808373ffffffffffffffffffffffffffffffffffffffff16815260200160055481526020016000815260200160001515815250908060018154018082558091505060019003906000526020600020906004020160009091909190915060008201518160000160006101000a81548173ffffffffffffffffffffffffffffffffffffffff021916908373ffffffffffffffffffffffffffffffffffffffff160217905550602082015181600101556040820151816002015560608201518160030160006101000a81548160ff0219169083151502179055505050600160056000828254019250508190555050565b600760003373ffffffffffffffffffffffffffffffffffffffff1673ffffffffffffffffffffffffffffffffffffffff16815260200190815260200160002060009054906101000a900460ff16611000576040517f08c379a0000000000000000000000000000000000000000000000000000000008152600401610ff7906138ad565b60405180910390fd5b60001515600b60003373ffffffffffffffffffffffffffffffffffffffff1673ffffffffffffffffffffffffffffffffffffffff168152602001908152602001600020600083815260200190815260200160002060009054906101000a900460ff161515146110a4576040517f08c379a000000000000000000000000000000000000000000000000000000000815260040161109b906138cd565b60405180910390fd5b6000600f82815481106110b357fe5b9060005260206000209060040201905060008160000160009054906101000a900473ffffffffffffffffffffffffffffffffffffffff1690508160030160009054906101000a900460ff161561113e576040517f08c379a00000000000000000000000000000000000000000000000000000000081526004016111359061386d565b60405180910390fd5b600182600201600082825401925050819055506001600b60003373ffffffffffffffffffffffffffffffffffffffff1673ffffffffffffffffffffffffffffffffffffffff168152602001908152602001600020600085815260200190815260200160002060006101000a81548160ff0219169083151502179055506001548260020154106112d9576006819080600181540180825580915050600190039060005260206000200160009091909190916101000a81548173ffffffffffffffffffffffffffffffffffffffff021916908373ffffffffffffffffffffffffffffffffffffffff1602179055506001600760008373ffffffffffffffffffffffffffffffffffffffff1673ffffffffffffffffffffffffffffffffffffffff16815260200190815260200160002060006101000a81548160ff0219169083151502179055507fc82bdbbf677a2462f2a7e22e4ba9abd209496b69cd7b868b3b1d28f76e09a40a81336040516112b3929190613643565b60405180910390a160018260030160006101000a81548160ff0219169083151502179055505b505050565b600760003373ffffffffffffffffffffffffffffffffffffffff1673ffffffffffffffffffffffffffffffffffffffff16815260200190815260200160002060009054906101000a900460ff1661136a576040517f08c379a0000000000000000000000000000000000000000000000000000000008152600401611361906138ad565b60405180910390fd5b6000600c828154811061137957fe5b90600052602060002090600502016001015410156113cc576040517f08c379a00000000000000000000000000000000000000000000000000000000081526004016113c39061394d565b60405180910390fd5b60001515600860003373ffffffffffffffffffffffffffffffffffffffff1673ffffffffffffffffffffffffffffffffffffffff168152602001908152602001600020600083815260200190815260200160002060009054906101000a900460ff16151514611470576040517f08c379a0000000000000000000000000000000000000000000000000000000008152600401611467906138cd565b60405180910390fd5b6000600c828154811061147f57fe5b906000526020600020906005020190508060040160009054906101000a900460ff16156114e1576040517f08c379a00000000000000000000000000000000000000000000000000000000081526004016114d89061386d565b60405180910390fd5b600181600301600082825401925050819055506001600860003373ffffffffffffffffffffffffffffffffffffffff1673ffffffffffffffffffffffffffffffffffffffff168152602001908152602001600020600084815260200190815260200160002060006101000a81548160ff0219169083151502179055506001548160030154106116c05760008160000160009054906101000a900473ffffffffffffffffffffffffffffffffffffffff1673ffffffffffffffffffffffffffffffffffffffff1682600101546040516115b8906135ea565b60006040518083038185875af1925050503d80600081146115f5576040519150601f19603f3d011682016040523d82523d6000602084013e6115fa565b606091505b505090508061163e576040517f08c379a0000000000000000000000000000000000000000000000000000000008152600401611635906138ed565b60405180910390fd5b60018260040160006101000a81548160ff0219169083151502179055507fdbc89b48909bf05358f55dec405c6da4b03a8ff07fbe1182287c931ef0880f268260000160009054906101000a900473ffffffffffffffffffffffffffffffffffffffff168360010154336040516116b69392919061366c565b60405180910390a1505b5050565b600760003373ffffffffffffffffffffffffffffffffffffffff1673ffffffffffffffffffffffffffffffffffffffff16815260200190815260200160002060009054906101000a900460ff16611750576040517f08c379a0000000000000000000000000000000000000000000000000000000008152600401611747906138ad565b60405180910390fd5b60001515600a60003373ffffffffffffffffffffffffffffffffffffffff1673ffffffffffffffffffffffffffffffffffffffff168152602001908152602001600020600083815260200190815260200160002060009054906101000a900460ff161515146117f4576040517f08c379a00000000000000000000000000000000000000000000000000000000081526004016117eb906138cd565b60405180910390fd5b6000600e828154811061180357fe5b906000526020600020906004020190508060030160009054906101000a900460ff1615611865576040517f08c379a000000000000000000000000000000000000000000000000000000000815260040161185c9061386d565b60405180910390fd5b60008160000160009054906101000a900473ffffffffffffffffffffffffffffffffffffffff169050600182600201600082825401925050819055506001600a60003373ffffffffffffffffffffffffffffffffffffffff1673ffffffffffffffffffffffffffffffffffffffff168152602001908152602001600020600085815260200190815260200160002060006101000a81548160ff021916908315150217905550600154826002015410611aca57600080600090505b600680549050811015611a37578273ffffffffffffffffffffffffffffffffffffffff166006828154811061195057fe5b9060005260206000200160009054906101000a900473ffffffffffffffffffffffffffffffffffffffff1673ffffffffffffffffffffffffffffffffffffffff161415611a2a57809150600060076000600684815481106119ad57fe5b9060005260206000200160009054906101000a900473ffffffffffffffffffffffffffffffffffffffff1673ffffffffffffffffffffffffffffffffffffffff1673ffffffffffffffffffffffffffffffffffffffff16815260200190815260200160002060006101000a81548160ff0219169083151502179055505b808060010191505061191f565b5060068181548110611a4557fe5b9060005260206000200160006101000a81549073ffffffffffffffffffffffffffffffffffffffff02191690557fe594d081b4382713733fe631966432c9cea5199afb2db5c3c1931f9f930036798233604051611aa3929190613643565b60405180910390a160018360030160006101000a81548160ff021916908315150217905550505b505050565b6060600760003373ffffffffffffffffffffffffffffffffffffffff1673ffffffffffffffffffffffffffffffffffffffff16815260200190815260200160002060009054906101000a900460ff16611b5d576040517f08c379a0000000000000000000000000000000000000000000000000000000008152600401611b54906138ad565b60405180910390fd5b6060611b676128da565b90506060815167ffffffffffffffff81118015611b8357600080fd5b50604051908082528060200260200182016040528015611bbd57816020015b611baa612baa565b815260200190600190039081611ba25790505b50905060005b8251811015611cae57600e838281518110611bda57fe5b602002602001015181548110611bec57fe5b90600052602060002090600402016040518060800160405290816000820160009054906101000a900473ffffffffffffffffffffffffffffffffffffffff1673ffffffffffffffffffffffffffffffffffffffff1673ffffffffffffffffffffffffffffffffffffffff16815260200160018201548152602001600282015481526020016003820160009054906101000a900460ff161515151581525050828281518110611c9657fe5b60200260200101819052508080600101915050611bc3565b50809250505090565b600760003373ffffffffffffffffffffffffffffffffffffffff1673ffffffffffffffffffffffffffffffffffffffff16815260200190815260200160002060009054906101000a900460ff16611d43576040517f08c379a0000000000000000000000000000000000000000000000000000000008152600401611d3a906138ad565b60405180910390fd5b6000600d8281548110611d5257fe5b90600052602060002090600402016000015411611da4576040517f08c379a0000000000000000000000000000000000000000000000000000000008152600401611d9b9061394d565b60405180910390fd5b60001515600960003373ffffffffffffffffffffffffffffffffffffffff1673ffffffffffffffffffffffffffffffffffffffff168152602001908152602001600020600083815260200190815260200160002060009054906101000a900460ff16151514611e48576040517f08c379a0000000000000000000000000000000000000000000000000000000008152600401611e3f9061376d565b60405180910390fd5b6000600d8281548110611e5757fe5b906000526020600020906004020190508060030160009054906101000a900460ff1615611eb9576040517f08c379a0000000000000000000000000000000000000000000000000000000008152600401611eb09061386d565b60405180910390fd5b600181600201600082825401925050819055506001600960003373ffffffffffffffffffffffffffffffffffffffff1673ffffffffffffffffffffffffffffffffffffffff168152602001908152602001600020600084815260200190815260200160002060006101000a81548160ff021916908315150217905550600154816002015410611fac577f3e7711649d931413ac3a01771ed77691a6a5ee237e4d6a94e60957e92e0828d2600154826000015433604051611f7b93929190613988565b60405180910390a1806000015460018190555060018160030160006101000a81548160ff0219169083151502179055505b5050565b600760003373ffffffffffffffffffffffffffffffffffffffff1673ffffffffffffffffffffffffffffffffffffffff16815260200190815260200160002060009054906101000a900460ff1661203c576040517f08c379a0000000000000000000000000000000000000000000000000000000008152600401612033906138ad565b60405180910390fd5b8047101561207f576040517f08c379a0000000000000000000000000000000000000000000000000000000008152600401612076906137ad565b60405180910390fd5b600073ffffffffffffffffffffffffffffffffffffffff168273ffffffffffffffffffffffffffffffffffffffff1614156120ef576040517f08c379a00000000000000000000000000000000000000000000000000000000081526004016120e69061380d565b60405180910390fd5b60008111612132576040517f08c379a00000000000000000000000000000000000000000000000000000000081526004016121299061374d565b60405180910390fd5b600c6040518060a001604052808473ffffffffffffffffffffffffffffffffffffffff16815260200183815260200160025481526020016000815260200160001515815250908060018154018082558091505060019003906000526020600020906005020160009091909190915060008201518160000160006101000a81548173ffffffffffffffffffffffffffffffffffffffff021916908373ffffffffffffffffffffffffffffffffffffffff16021790555060208201518160010155604082015181600201556060820151816003015560808201518160040160006101000a81548160ff021916908315150217905550505060016002600082825401925050819055505050565b6060600060068054905011612286576040517f08c379a000000000000000000000000000000000000000000000000000000000815260040161227d9061392d565b60405180910390fd5b600080600090505b60068054905081101561231a57600073ffffffffffffffffffffffffffffffffffffffff16600682815481106122c057fe5b9060005260206000200160009054906101000a900473ffffffffffffffffffffffffffffffffffffffff1673ffffffffffffffffffffffffffffffffffffffff161461230d576001820191505b808060010191505061228e565b5060608167ffffffffffffffff8111801561233457600080fd5b506040519080825280602002602001820160405280156123635781602001602082028036833780820191505090505b509050600080600090505b60068054905081101561247857600073ffffffffffffffffffffffffffffffffffffffff16600682815481106123a057fe5b9060005260206000200160009054906101000a900473ffffffffffffffffffffffffffffffffffffffff1673ffffffffffffffffffffffffffffffffffffffff161461246b57600681815481106123f357fe5b9060005260206000200160009054906101000a900473ffffffffffffffffffffffffffffffffffffffff1683838151811061242a57fe5b602002602001019073ffffffffffffffffffffffffffffffffffffffff16908173ffffffffffffffffffffffffffffffffffffffff16815250506001820191505b808060010191505061236e565b5081935050505090565b6060600760003373ffffffffffffffffffffffffffffffffffffffff1673ffffffffffffffffffffffffffffffffffffffff16815260200190815260200160002060009054906101000a900460ff16612510576040517f08c379a0000000000000000000000000000000000000000000000000000000008152600401612507906138ad565b60405180910390fd5b606061251a612a0d565b90506060815167ffffffffffffffff8111801561253657600080fd5b5060405190808252806020026020018201604052801561257057816020015b61255d612bea565b8152602001906001900390816125555790505b50905060005b825181101561266b57600c83828151811061258d57fe5b60200260200101518154811061259f57fe5b90600052602060002090600502016040518060a00160405290816000820160009054906101000a900473ffffffffffffffffffffffffffffffffffffffff1673ffffffffffffffffffffffffffffffffffffffff1673ffffffffffffffffffffffffffffffffffffffff1681526020016001820154815260200160028201548152602001600382015481526020016004820160009054906101000a900460ff16151515158152505082828151811061265357fe5b60200260200101819052508080600101915050612576565b50809250505090565b6060600080600090505b600f805490508110156126d75760001515600f828154811061269c57fe5b906000526020600020906004020160030160009054906101000a900460ff16151514156126ca576001820191505b808060010191505061267e565b5060608167ffffffffffffffff811180156126f157600080fd5b506040519080825280602002602001820160405280156127205781602001602082028036833780820191505090505b509050600080600090505b600f8054905081101561279d5760001515600f828154811061274957fe5b906000526020600020906004020160030160009054906101000a900460ff1615151415612790578083838151811061277d57fe5b6020026020010181815250506001820191505b808060010191505061272b565b5081935050505090565b6060600080600090505b600d8054905081101561280a5760001515600d82815481106127cf57fe5b906000526020600020906004020160030160009054906101000a900460ff16151514156127fd576001820191505b80806001019150506127b1565b5060608167ffffffffffffffff8111801561282457600080fd5b506040519080825280602002602001820160405280156128535781602001602082028036833780820191505090505b509050600080600090505b600d805490508110156128d05760001515600d828154811061287c57fe5b906000526020600020906004020160030160009054906101000a900460ff16151514156128c357808383815181106128b057fe5b6020026020010181815250506001820191505b808060010191505061285e565b5081935050505090565b6060600080600090505b600e8054905081101561293d5760001515600e828154811061290257fe5b906000526020600020906004020160030160009054906101000a900460ff1615151415612930576001820191505b80806001019150506128e4565b5060608167ffffffffffffffff8111801561295757600080fd5b506040519080825280602002602001820160405280156129865781602001602082028036833780820191505090505b509050600080600090505b600e80549050811015612a035760001515600e82815481106129af57fe5b906000526020600020906004020160030160009054906101000a900460ff16151514156129f657808383815181106129e357fe5b6020026020010181815250506001820191505b8080600101915050612991565b5081935050505090565b6060600080600090505b600c80549050811015612a705760001515600c8281548110612a3557fe5b906000526020600020906005020160040160009054906101000a900460ff1615151415612a63576001820191505b8080600101915050612a17565b5060608167ffffffffffffffff81118015612a8a57600080fd5b50604051908082528060200260200182016040528015612ab95781602001602082028036833780820191505090505b509050600080600090505b600c80549050811015612b365760001515600c8281548110612ae257fe5b906000526020600020906005020160040160009054906101000a900460ff1615151415612b295780838381518110612b1657fe5b6020026020010181815250506001820191505b8080600101915050612ac4565b5081935050505090565b6040518060800160405280600073ffffffffffffffffffffffffffffffffffffffff16815260200160008152602001600081526020016000151581525090565b60405180608001604052806000815260200160008152602001600081526020016000151581525090565b6040518060800160405280600073ffffffffffffffffffffffffffffffffffffffff16815260200160008152602001600081526020016000151581525090565b6040518060a00160405280600073ffffffffffffffffffffffffffffffffffffffff1681526020016000815260200160008152602001600081526020016000151581525090565b600081359050612c4081613b76565b92915050565b600081359050612c5581613b8d565b92915050565b600060208284031215612c6d57600080fd5b6000612c7b84828501612c31565b91505092915050565b60008060408385031215612c9757600080fd5b6000612ca585828601612c31565b9250506020612cb685828601612c46565b9150509250929050565b600060208284031215612cd257600080fd5b6000612ce084828501612c46565b91505092915050565b6000612cf58383612d70565b60208301905092915050565b6000612d0d8383613465565b60808301905092915050565b6000612d2583836134ba565b60808301905092915050565b6000612d3d838361350f565b60a08301905092915050565b6000612d558383613577565b60808301905092915050565b612d6a81613b40565b82525050565b612d7981613af8565b82525050565b612d8881613af8565b82525050565b6000612d9982613a0f565b612da38185613a87565b9350612dae836139bf565b8060005b83811015612ddf578151612dc68882612ce9565b9750612dd183613a46565b925050600181019050612db2565b5085935050505092915050565b6000612df782613a1a565b612e018185613a98565b9350612e0c836139cf565b8060005b83811015612e3d578151612e248882612d01565b9750612e2f83613a53565b925050600181019050612e10565b5085935050505092915050565b6000612e5582613a25565b612e5f8185613aa9565b9350612e6a836139df565b8060005b83811015612e9b578151612e828882612d19565b9750612e8d83613a60565b925050600181019050612e6e565b5085935050505092915050565b6000612eb382613a30565b612ebd8185613aba565b9350612ec8836139ef565b8060005b83811015612ef9578151612ee08882612d31565b9750612eeb83613a6d565b925050600181019050612ecc565b5085935050505092915050565b6000612f1182613a3b565b612f1b8185613acb565b9350612f26836139ff565b8060005b83811015612f57578151612f3e8882612d49565b9750612f4983613a7a565b925050600181019050612f2a565b5085935050505092915050565b612f6d81613b0a565b82525050565b6000612f80601183613ae7565b91507f56616c75652063616e6e6f7420626520300000000000000000000000000000006000830152602082019050919050565b6000612fc0602583613ae7565b91507f4f776e657220616c7265616479207369676e65642074686973207472616e736160008301527f6374696f6e0000000000000000000000000000000000000000000000000000006020830152604082019050919050565b6000613026602c83613ae7565b91507f5468657265206e6565647320746f206265206d6f7265206f776e65727320746860008301527f616e207468726573686f6c6400000000000000000000000000000000000000006020830152604082019050919050565b600061308c601083613ae7565b91507f4e6f7420656e6f7567682066756e6473000000000000000000000000000000006000830152602082019050919050565b60006130cc602083613ae7565b91507f596f75206e656564206174206c65617374207468726573686f6c64206f6620316000830152602082019050919050565b600061310c601783613ae7565b91507f41646472657373206973206e6f7420616e206f776e65720000000000000000006000830152602082019050919050565b600061314c601a83613ae7565b91507f61646472657373207a65726f206e6f7420737570706f727465640000000000006000830152602082019050919050565b600061318c601e83613ae7565b91507f7468726573686f6c64206578636565647320746f74616c206f776e65727300006000830152602082019050919050565b60006131cc601183613ae7565b91507f496e636f727265637420616464726573730000000000000000000000000000006000830152602082019050919050565b600061320c601c83613ae7565b91507f5472616e73616374696f6e20616c726561647920617070726f766564000000006000830152602082019050919050565b600061324c602283613ae7565b91507f5468657265206e6565647320746f206265206174206c656173742031206f776e60008301527f65720000000000000000000000000000000000000000000000000000000000006020830152604082019050919050565b60006132b2600983613ae7565b91507f4e6f74206f776e657200000000000000000000000000000000000000000000006000830152602082019050919050565b60006132f2602383613ae7565b91507f596f7520616c7265616479207369676e65642074686973207472616e7361637460008301527f696f6e00000000000000000000000000000000000000000000000000000000006020830152604082019050919050565b6000613358601283613ae7565b91507f5472616e73616374696f6e206661696c656400000000000000000000000000006000830152602082019050919050565b6000613398600083613adc565b9150600082019050919050565b60006133b2601883613ae7565b91507f6164647265737320616c726561647920616e206f776e657200000000000000006000830152602082019050919050565b60006133f2601a83613ae7565b91507f30206f776e657273206e6f742076616c69642c204552524f52210000000000006000830152602082019050919050565b6000613432601b83613ae7565b91507f5472616e73616374696f6e20646f6573206e6f742065786973747300000000006000830152602082019050919050565b60808201600082015161347b6000850182612d70565b50602082015161348e60208501826135cc565b5060408201516134a160408501826135cc565b5060608201516134b46060850182612f64565b50505050565b6080820160008201516134d06000850182612d70565b5060208201516134e360208501826135cc565b5060408201516134f660408501826135cc565b5060608201516135096060850182612f64565b50505050565b60a0820160008201516135256000850182612d70565b50602082015161353860208501826135cc565b50604082015161354b60408501826135cc565b50606082015161355e60608501826135cc565b5060808201516135716080850182612f64565b50505050565b60808201600082015161358d60008501826135cc565b5060208201516135a060208501826135cc565b5060408201516135b360408501826135cc565b5060608201516135c66060850182612f64565b50505050565b6135d581613b36565b82525050565b6135e481613b36565b82525050565b60006135f58261338b565b9150819050919050565b60006020820190506136146000830184612d7f565b92915050565b600060408201905061362f6000830185612d61565b61363c60208301846135db565b9392505050565b60006040820190506136586000830185612d7f565b6136656020830184612d61565b9392505050565b60006060820190506136816000830186612d7f565b61368e60208301856135db565b61369b6040830184612d61565b949350505050565b600060208201905081810360008301526136bd8184612d8e565b905092915050565b600060208201905081810360008301526136df8184612dec565b905092915050565b600060208201905081810360008301526137018184612e4a565b905092915050565b600060208201905081810360008301526137238184612ea8565b905092915050565b600060208201905081810360008301526137458184612f06565b905092915050565b6000602082019050818103600083015261376681612f73565b9050919050565b6000602082019050818103600083015261378681612fb3565b9050919050565b600060208201905081810360008301526137a681613019565b9050919050565b600060208201905081810360008301526137c68161307f565b9050919050565b600060208201905081810360008301526137e6816130bf565b9050919050565b60006020820190508181036000830152613806816130ff565b9050919050565b600060208201905081810360008301526138268161313f565b9050919050565b600060208201905081810360008301526138468161317f565b9050919050565b60006020820190508181036000830152613866816131bf565b9050919050565b60006020820190508181036000830152613886816131ff565b9050919050565b600060208201905081810360008301526138a68161323f565b9050919050565b600060208201905081810360008301526138c6816132a5565b9050919050565b600060208201905081810360008301526138e6816132e5565b9050919050565b600060208201905081810360008301526139068161334b565b9050919050565b60006020820190508181036000830152613926816133a5565b9050919050565b60006020820190508181036000830152613946816133e5565b9050919050565b6000602082019050818103600083015261396681613425565b9050919050565b600060208201905061398260008301846135db565b92915050565b600060608201905061399d60008301866135db565b6139aa60208301856135db565b6139b76040830184612d61565b949350505050565b6000819050602082019050919050565b6000819050602082019050919050565b6000819050602082019050919050565b6000819050602082019050919050565b6000819050602082019050919050565b600081519050919050565b600081519050919050565b600081519050919050565b600081519050919050565b600081519050919050565b6000602082019050919050565b6000602082019050919050565b6000602082019050919050565b6000602082019050919050565b6000602082019050919050565b600082825260208201905092915050565b600082825260208201905092915050565b600082825260208201905092915050565b600082825260208201905092915050565b600082825260208201905092915050565b600081905092915050565b600082825260208201905092915050565b6000613b0382613b16565b9050919050565b60008115159050919050565b600073ffffffffffffffffffffffffffffffffffffffff82169050919050565b6000819050919050565b6000613b4b82613b52565b9050919050565b6000613b5d82613b64565b9050919050565b6000613b6f82613b16565b9050919050565b613b7f81613af8565b8114613b8a57600080fd5b50565b613b9681613b36565b8114613ba157600080fd5b5056fea2646970667358221220dcdaedb4f2c0e555378edf019a67f46f6ea3ed93926780b8e79a4d06a83daa5f64736f6c63430007030033",
  "linkReferences": {},
  "deployedLinkReferences": {}
}